:020000040000fa
:080000000002040000000000f2
:020000040000fa
:04000800aa03000047
:020000040000fa
:04000c00b00300003d
:020000040000fa
:0400100020040000c8
:020000040000fa
:04001400b60300002f
:020000040000fa
:04001800bc03000025
:020000040000fa
:04001c00c20300001b
:020000040000fa
:0400200020040000b8
:020000040000fa
:0400240020040000b4
:020000040000fa
:0400280020040000b0
:020000040000fa
:04002c0020040000ac
:020000040000fa
:0400300020040000a8
:020000040000fa
:04003400480300007d
:020000040000fa
:0400380020040000a0
:020000040000fa
:04003c00200400009c
:020000040000fa
:040040002004000098
:020000040000fa
:040044002004000094
:020000040000fa
:04004800a20300000f
:020000040000fa
:04004c00200400008c
:020000040000fa
:040050002004000088
:020000040000fa
:04005400fa020000ac
:020000040000fa
:04005800c8030000d9
:020000040000fa
:04005c00f2030000ab
:020000040000fa
:040060002004000078
:020000040000fa
:040064002004000074
:020000040000fa
:040068002004000070
:020000040000fa
:04006c00200400006c
:020000040000fa
:040070002004000068
:020000040000fa
:040074002004000064
:020000040000fa
:040078002004000060
:020000040000fa
:04007c00200400005c
:020000040000fa
:040080002004000058
:020000040000fa
:040084002004000054
:020000040000fa
:040088002004000050
:020000040000fa
:04008c00200400004c
:020000040000fa
:040090002004000048
:020000040000fa
:040094008a030000db
:020000040000fa
:040098002004000040
:020000040000fa
:04009c00200400003c
:020000040000fa
:0400a0002004000038
:020000040000fa
:0400a4002004000034
:020000040000fa
:0400a8002004000030
:020000040000fa
:0400ac00200400002c
:020000040000fa
:0400b0002004000028
:020000040000fa
:0400b4002004000024
:020000040000fa
:0400b8002004000020
:020000040000fa
:0400bc00200400001c
:020000040000fa
:0400c0002004000018
:020000040000fa
:0400c4002004000014
:020000040000fa
:0400c8002004000010
:020000040000fa
:0400cc00200400000c
:020000040000fa
:0400d0002004000008
:020000040000fa
:0400d4002004000004
:020000040000fa
:0400d8002004000000
:020000040000fa
:0400dc0020040000fc
:020000040000fa
:0400e00020040000f8
:020000040000fa
:0400e40020040000f4
:020000040000fa
:0400e80020040000f0
:020000040000fa
:0400ec0020040000ec
:020000040000fa
:0400f00020040000e8
:020000040000fa
:0400f40020040000e4
:020000040000fa
:0400f80020040000e0
:020000040000fa
:0400fc0020040000dc
:020000040000fa
:0401000020040000d7
:020000040000fa
:0401040020040000d3
:020000040000fa
:0401080020040000cf
:020000040000fa
:04010c0020040000cb
:020000040000fa
:0401100020040000c7
:020000040000fa
:0401140020040000c3
:020000040000fa
:0401180020040000bf
:020000040000fa
:04011c0020040000bb
:020000040000fa
:0401200020040000b7
:020000040000fa
:0401240020040000b3
:020000040000fa
:0401280020040000af
:020000040000fa
:04012c0020040000ab
:020000040000fa
:0401300020040000a7
:020000040000fa
:0401340020040000a3
:020000040000fa
:04013800200400009f
:020000040000fa
:04013c00200400009b
:020000040000fa
:040140002004000097
:020000040000fa
:040144002004000093
:020000040000fa
:04014800200400008f
:020000040000fa
:04014c00200400008b
:020000040000fa
:040150002004000087
:020000040000fa
:040154002004000083
:020000040000fa
:04015800200400007f
:020000040000fa
:04015c00200400007b
:020000040000fa
:040160002004000077
:020000040000fa
:040164002004000073
:020000040000fa
:04016800200400006f
:020000040000fa
:04016c00200400006b
:020000040000fa
:040170002004000067
:020000040000fa
:040174002004000063
:020000040000fa
:04017800200400005f
:020000040000fa
:04017c00200400005b
:020000040000fa
:040180002004000057
:020000040000fa
:040184002004000053
:020000040000fa
:04018800200400004f
:020000040000fa
:04018c00200400004b
:020000040000fa
:040190002004000047
:020000040000fa
:040194002004000043
:020000040000fa
:04019800200400003f
:020000040000fa
:04019c00200400003b
:020000040000fa
:0401a0002004000037
:020000040000fa
:0401a4002004000033
:020000040000fa
:0401a800200400002f
:020000040000fa
:0401ac00200400002b
:020000040000fa
:0401b0002004000027
:020000040000fa
:0401b4002004000023
:020000040000fa
:0401b800200400001f
:020000040000fa
:0401bc00200400001b
:020000040000fa
:0401c0002004000017
:020000040000fa
:0401c4002004000013
:020000040000fa
:0401c800200400000f
:020000040000fa
:0401cc00200400000b
:020000040000fa
:0401d0002004000007
:020000040000fa
:0401d4002004000003
:020000040000fa
:0401d80020040000ff
:020000040000fa
:0401dc0020040000fb
:020000040000fa
:0401e00020040000f7
:020000040000fa
:0401e40020040000f3
:020000040000fa
:0401e80020040000ef
:020000040000fa
:0401ec0020040000eb
:020000040000fa
:0401f00020040000e7
:020000040000fa
:0401f40020040000e3
:020000040000fa
:0401f80020040000df
:020000040000fa
:0401fc0020040000db
:020000040000fa
:0402000020040000d6
:020000040000fa
:0402040020040000d2
:020000040000fa
:0402080020040000ce
:020000040000fa
:04020c0020040000ca
:020000040000fa
:0402100020040000c6
:020000040000fa
:0402140020040000c2
:020000040000fa
:0402180020040000be
:020000040000fa
:04021c0020040000ba
:020000040000fa
:0402200020040000b6
:020000040000fa
:0402240020040000b2
:020000040000fa
:0402280020040000ae
:020000040000fa
:04022c0020040000aa
:020000040000fa
:0402300020040000a6
:020000040000fa
:0402340020040000a2
:020000040000fa
:04023800200400009e
:020000040000fa
:04023c00200400009a
:020000040000fa
:040240002004000096
:020000040000fa
:040244002004000092
:020000040000fa
:04024800200400008e
:020000040000fa
:04024c00200400008a
:020000040000fa
:040250002004000086
:020000040000fa
:040254002004000082
:020000040000fa
:04025800200400007e
:020000040000fa
:04025c00200400007a
:020000040000fa
:040260002004000076
:020000040000fa
:040264002004000072
:020000040000fa
:04026800200400006e
:020000040000fa
:04026c00200400006a
:020000040000fa
:040270002004000066
:020000040000fa
:040274002004000062
:020000040000fa
:04027800200400005e
:020000040000fa
:04027c00200400005a
:020000040000fa
:040280002004000056
:020000040000fa
:10040000cf3d21000eff2c000e01880000000000ef
:10041000000020000000e000020032000001200087
:100420002002880014000700070107000000e00018
:1004300003003a00008f2100010020000200370075
:100440000000200001002000810f70000100320038
:100450000f000700000020000000e0000200320052
:100460000000020000000000aa12020000000000cc
:100470000040da000000fe00200020000000e00044
:1004800002003200100020009001880000000600e9
:10049000a1028800800478000000eb001f003700f4
:1004a000e284440054a0b4009905ba00e2844400f8
:1004b00054a0b4009906ba00e284440054a0b400e9
:1004c0000006eb00476fde00fd07b200ae018800ba
:1004d000636ce10003003a000ad801000000eb0061
:1004e0000e003700606ce10008003a00004deb00a0
:1004f0000a05e800020039003420ec000af0a000f0
:100500008b05e900f9ff3e00040037006168e10057
:10051000010032000086eb000b00070019c7ba008b
:100520000e04e0001905ba0003003a000a00e000da
:10053000dbff3a0000000600fe07b200ae028800b2
:100540008a047800f5ff37000cd0a300e20f4d00bd
:100550001c00390089027800354dba000a05e80010
:10056000020039003420ec000af0a0008b05e900fd
:100570000f003200254dba000a05e80002003900dc
:100580003420ec000af0a0008b05e90008003200de
:100590000c00e0000600320015cdba000a05e800a4
:1005a000020039003420ec000af0a0008b05e900bd
:1005b0008984e80054a0b4000b00e000e2ff3a0098
:1005c000000006009902ba00055d78008b05e9007d
:1005d000f7ff3200c82ade00055d78008b05e900d0
:1005e000f3ff32000c00e000f1ff320019ddba0029
:1005f000eeff37003600f800809fbe00829fbe00ed
:10060000849fbe00869fbe000000fa000168a9001a
:1006100010118000640060000000e0000100320062
:100620002242a90010118000620060000000e0007a
:10063000010032002222a900101180006800600031
:100640000000e000060032002262a9000500370029
:1006500030118000004078003b0a0700010037009d
:100660000000000010118000610060000000e00048
:10067000f7ff3a000080fa004f03be004f02be00b1
:100680004f01be004f00be003600f90000400600da
:100690003600f800809fbe00829fbe00849fbe008f
:1006a000869fbe000000fa000068a90072040700df
:1006b00004030700bf03070092818000a38180002c
:1006c000708180008181800000015100818159008a
:1006d0001003200001002000800f5100818f59007d
:1006e0000500360090818000a18180007081880023
:1006f00081818800340507000080fa004f03be00a6
:100700004f02be004f01be004f00be003600f90090
:1007100000400600809fbe000000fa000368a900a8
:1007200090818000a181800061004000e08048004d
:1007300090818800a18188000080fa004f00be00ef
:10074000004006000000fa000108a9000080fa003d
:10075000004006000000fa00c028a900ffff370093
:100760000000fa00c068a900ffff37000000fa008f
:10077000c048a900ffff37000000fa00c088a900a8
:10078000ffff37000000fa00c0a8a900ffff3700f4
:100790003600f800809fbe00829fbe00849fbe008e
:1007a000869fbe000000fa000188a9003181800008
:1007b00020818000808f50000200320083090700f2
:1007c000010037002870ef000080fa004f03be00e0
:1007d0004f02be004f01be004f00be003600f900c0
:1007e00000400600809fbe000000fa0001a8a9009a
:1007f00001188000a0012100010878001118800074
:10080000a00121001100980021188000a001210002
:100810002100980031188000a001210031009800cb
:1008200041188000a00121004100980010c0b300d1
:1008300022f0b7000080fa004f00be000040060022
:100840000040da000000fe000000050003f0a200f6
:10085000889fbe008a9fbe008c1f78006c01070035
:10086000730133006450e1004f0032006420e10066
:100870005200320003826c0007003b000905d000e3
:100880000306d000820f54000c065d000200390000
:100890000200320089017800030678008582550045
:1008a00004003d000003fd008103fd008502ea0015
:1008b0008b854200840f720002003b006000100034
:1008c000e08018006011b8000005eb007a28e10014
:1008d0000a00390006007800c75ddd00f707b200a6
:1008e000878075002d003700828171000a01780031
:1008f000610560008180d1000080d3008502e9009d
:10090000f9ff3b00060440008784480002003b00da
:1009100060041400e0841c000988a3000700320072
:100920008a81710082817100610164008904d100b3
:100930000884d3008b05e800170037000978a3006e
:1009400013003a000b00e000130034008b05e900af
:100950000804440089844c000a4474000978a30008
:100960000d003a000b00e000070034008b05e900a1
:100970000804440089844c0001003a000b00200068
:100980000978a300f7ff32000001eb0002003700f6
:10099000828171000a017800e20007000cf0a700d4
:1009a00001f0a0002b0137006420e10002003a00b2
:1009b000838f6c002b0133000801be000200be00d3
:1009c000240137000081eb005d013700889fbe00e5
:1009d0008a9fbe008c1f78000d01070014013300b0
:1009e00003866c006450e1002e0032006420e100b8
:1009f000330032006150e1002f0032006120e1003d
:100a00003100320085855500eb07b0000900200059
:100a100008042000050037000804440089844c00c5
:100a20000a0031000603430087834b000001530096
:100a300081815b00f8ff33000203be000800a000c4
:100a40000804440089844c00f6ff3900c639dd00f3
:100a50008301730001003200130020008904d100db
:100a60000884d3000998a300050032000800a700fd
:100a70000300a0008904d1000884d3008b05e8009e
:100a80008904d1000884d3000001eb000281d20068
:100a9000a400070001f0a1000cf0a70001f0a000e5
:100aa000ec0037006420e100ee0032000801be00d7
:100ab0000200be00f7ff37006120e100e9003200cc
:100ac0006000b800f3ff37000000200001f82700a5
:100ad000f0ff37001400200084013700f4ff2f00de
:100ae000820137000001be00b40007000470a700b7
:100af00003f0a1006509b100160032000d003500b9
:100b00006828e10006003500f0ff2f00f1ff270004
:100b10000300e00013003b00010028000000050076
:100b200000004000818048008502e900fcff3a0097
:100b300008003700f88f420002003c008000eb0004
:100b4000000005008100d1000080d3008502e8008c
:100b5000fcff3a000300e00002003b0060001000d0
:100b6000e0801800000006000001be0093000700ae
:100b70000470a70003f0a10003f8a30013003a00db
:100b80006509b10010003200090035006928e10054
:100b900002003500010028000000050000004000b0
:100ba000818048008502e900fcff3a000000060051
:100bb000f88f4200050035008100d1000080d3008d
:100bc0008502e800fcff3a00000006008000eb0010
:100bd000000005004f89de00820178005e013700c9
:100be0000400200000003700889fbe008a9fbe00de
:100bf0008c1f78004f26dd00850007008c00330035
:100c00006120e100430032006250e10041003e00fb
:100c10003e0039006420e1003c00320005825500ae
:100c20000f003b000402e80038003a00800f530038
:100c3000818f5b00350034000800be0003f0a10086
:100c400001f0a60003f0a0000cf0a70000ff0700d1
:100c5000800037000603430087834b000c464600a4
:100c60000005530081855b00020033000a03be00cb
:100c70000c00a0000402e900f6ff3b0085057800a7
:100c80000602430087824b0004003a006000b8006f
:100c900009f0a70001f0a0006e003700000252002a
:100ca00081825a000704e000040033000603430079
:100cb00087834b008b05e900faff370009057800b0
:100cc0000604be000203be006011b8001500070054
:100cd000e00f5200e08f5a000700350002003c0090
:100ce0000c08a300040032000601be0003f0a000bf
:100cf0000cf0a700d6fe07000a85680001f0a100ed
:100d00000af0a70001f0a000520037000800be0062
:100d100050003700100220000cf0a600c0818800af
:100d20005000370081002000618055000b003d001d
:100d30000b00200061fe2f000100e1001d003400c7
:100d400082817100610164008904d1000884d300ac
:100d50000000e800faff3a00710020006100640022
:100d600003007000020060000900320061044400ca
:100d7000e0844c000988a500050032008b05e800de
:100d80006808e10002003a008904d1000884d30019
:100d9000f20f20000258e10005003d00c75ddd00b4
:100da000f907b2008980750008007800000006008d
:100db0000bf827008b00780000000500c70ade0052
:100dc000f107b200f50fb20008003200e1cf420097
:100dd000020032000170a00024000500810f7000a5
:100de000010032000408050044000500810f700076
:100df00002003a00140005008502e90000004000ee
:100e000081c04800fcff3b000170a00024000500e9
:100e10000004be00e9ff07000003be000405be0099
:100e20000200be00e5ff0700844f750000000600c9
:100e30000200be006450e100050036006420e100bd
:100e4000020036000968a30001003a000800be0055
:100e50000160a0004f0678004f05be004f04be00a1
:100e600000000600f0ff2f00f1ff2700f9ff370018
:100e7000889fbe008a9fbe008c1f7800e4ff070099
:100e8000ebff330003866c006450e1002400320065
:100e90006420e100270032006150e10022003200ae
:100ea0006120e100210032008b854200eb07b10098
:100eb0000134b800003ab8000804420089844a00ae
:100ec000013ab8000030b8008880400009014a00ab
:100ed0000400330000004000818048000201490006
:100ee0008b05e900c909dd008301700001003200b3
:100ef00013002000c814de004814dd004709de009e
:100f00001200b200c808de000884700085ff0700e8
:100f100001f0a1000cf0a70001f0a000cdff370008
:100f20006120e100cfff32000801be000200be00d8
:100f3000f7ff37006150e100fcff3a00c9ff3700be
:100f4000889fbe008a9fbe008c9fbe0082057800ed
:100f50000004be0099ff07000800be006420e10005
:100f60000700390002003a00f1ff2700f0ff2f00d0
:100f70000160a00012022000c281880055003700e5
:100f80006120e10003003a000b00a70001f82300f4
:100f90005000370001f0a1000200210093642400fa
:100fa000ccfe07000800be0004003500b2fd2000a2
:100fb000930c24000aff07000004be000005eb00ac
:100fc0000b00a6004f0dde0001f0a1000004be00e2
:100fd00032982f0023ea2300a5ff07000001eb0051
:100fe00003f023000b00a70003f8230018fe0700fe
:100ff000bcfe07000000a7000a00a200f5fe0700e3
:101000000b00e000030032000200200003f0230088
:101010000efe070001f0a2000006be000200200044
:101020009304240092ff07000801be0008fe070099
:10103000809fbe000c00be0022a22a00d3a723007e
:101040008bff07004f01be0001fe07000004be0039
:1010500001f0a10002002000039823009dfe07007c
:101060000800be00190035000001be0080ff070027
:101070000006be00b2c52900e36223007cff070022
:1010800022222b00f3942b00f1fd07000c01be007f
:1010900077ff0700e273280083c02300ecfd070000
:1010a0000c01be0072ff070042aa2a00a3e22b0037
:1010b000e7fd07000c01be006dff07000801be0040
:1010c0006bff07000801be00e1fd07000a00a70052
:1010d00001f0a2004f06be004f05be004f04be0047
:1010e000000006000001eb0095ff3700889fbe005e
:1010f0008a9fbe00841f780045ff07004f007800dc
:1011000011003300f0ff2f00838f6c0006003b00be
:10111000040565000a00a7000800370009f0a600d2
:101120001000200008003700820f5400838f5c00fd
:10113000030039001000200001003e0000002000e4
:1011400009f0a7000000ea004f05be004f04be00f2
:101150000000e00000000600881f7800030478000b
:101160000300e00007003d0060001000e080180070
:1011700060011900e081190002003b0001f02d0020
:10118000030037000400070008f0a70001f0a000ea
:101190004f04780000000600889fbe008a9fbe00b2
:1011a0000082700004027100048271002600320087
:1011b0000004be000200be006011b8006b092000f0
:1011c000950220000182cf000a0039000541b100dc
:1011d0000082cf00070039000541b1000982cf002d
:1011e000040039000541b1000882cf000100390038
:1011f0000541b10005425200120032000a003b00d6
:1012000082817100610164008100d1000080d300ff
:101210008984d3000884d3008b05e8000442e800e9
:10122000f7ff3a00070037000804440089844c00a7
:1012300000004800818048008b05e9000442e90075
:10124000f9ff3a00b7fe07004f05be004f04be008d
:041250000000060094
:020000040000fa
:101254000000fa001160800080ff2f000080600011
:101264001060880000fa20002060880023aca800e9
:10127400238ca80011618000f03f2f0000806000e3
:1012840000a0a000106188003000200020618800c8
:10129400c3aca800c38ca80011668000f03f2f00e7
:1012a4000080600000a0a0001066880030002000cc
:1012b4002066880001eca8000080fa000000060007
:1012c4000000fa00889fbe008a9fbe00449a8000f6
:1012d400559a8000209a8000319a800018c0b3008b
:1012e4000001be000400be00f9fd07000000e0009c
:1012f400010035000044eb000804e0000f00320058
:10130400289a8000399a80004a9a80005b9a80006b
:1013140036d0bf000080fb00cf80de002cfe07002b
:101324000001be000a00be0048fd07000801be001f
:10133400f7040700409a8800519a8800449a800074
:10134400559a8000209a8000319a800018c0b3001a
:101354000001be000400be00dffd07000000e00045
:1013640001003c000044eb000804e0000f003200e0
:10137400289a8000399a80004a9a80005b9a8000fb
:1013840036d0bf000080fb00cf80de0010fe0700d7
:101394000001be000a00be002bfd07000801be00cc
:1013a400c3040700409a8800519a8800409a80003c
:1013b400519a800018c0b3006011b800c6fd070040
:1013c4000000e00001003c000044eb000804e000e1
:1013d40004003200c3cca90024eea800c3eca8008a
:1013e40003003700c3eca90024cea800c3cca80096
:1013f400409a8000519a8000970407000200200060
:101404000322240099fe0700d6fd0700000078009f
:1014140030668800049a8000159a8000e099800064
:10142400f199800018c0b3000001be000400be00a2
:10143400a7fd07000000e000010035000044eb00b8
:101444000804e0000f003200e8998000f999800058
:101454000a9a80001b9a800036d0bf000080fb00ef
:10146400cf80de00dafd07000001be000a00be00e6
:10147400f6fc07000801be00a5040700009a8800d6
:10148400119a8800049a8000159a8000e0998000df
:10149400f199800018c0b3000001be000400be0032
:1014a4008dfd07000000e00001003c000044eb005b
:1014b4000804e0000f003200e8998000f9998000e8
:1014c4000a9a80001b9a800036d0bf000080fb007f
:1014d400cf80de00befd07000001be000a00be0092
:1014e400d9fc07000801be0071040700009a8800b7
:1014f400119a8800009a8000119a800018c0b300e5
:101504006011b80072fd07000000e0000100350022
:101514000044eb000804e0000400320023cca900de
:1015240015eea80023eca8000300370023eca90063
:1015340015cea80023cca800009a8000119a800040
:1015440045040700020020000322240047fe070090
:1015540084fd070000007800306188004f05be005c
:101564004f04be000080fa00000006000600fa00e6
:10157400008fbe00424798004e409000e14f50005b
:1015840005003a001e0178009e019000e29988004f
:10159400f3998800040037001e0178009e01900032
:1015a400229a8800339a88000080fa00000006001e
:1015b4000000fa00889fbe00649a8000759a80003b
:1015c400209b8000319b80000001be000400be000f
:1015d4009dfc0700009d8800119d8800a49c80004c
:1015e400b59c8000009d8000119d80000001be001c
:1015f4000400be001dfe0700209d8800319d880068
:10160400489d8000599d8000049d8000159d8000a8
:10161400c09c8000d19c80000001be000400be007c
:1016240012fe070002002000a3372400e6fc070096
:101634000001be000800be0084fc0700409d880035
:10164400519d8800409d8000519d80000400200031
:10165400051224000200200003122c004404070099
:10166400409d8800519d8800249d8000359d800008
:10167400409d8000519d80000001be000400be001a
:1016840072fc070002002000031a2400f7fd070083
:10169400809d8800919d8800849a8000959a80009e
:1016a400409b8000519b80000001be000400be00ee
:1016b40065fc0700209e8800319e8800c49d800040
:1016c400d59d8000209e8000319e80000001be00d8
:1016d4000400be00e5fd0700409e8800519e88007e
:1016e400689e8000799e8000249e8000359e800044
:1016f400e09d8000f19d80000001be000400be005a
:10170400dafd070002002000a3372400aefc070026
:101714000001be000800be004cfc0700609e88006b
:10172400719e8800609e8000719e800004002000ed
:10173400051224000200200003122c000c040700f0
:10174400609e8800719e8800449e8000559e8000a3
:10175400609e8000719e80000001be000400be00f7
:101764003afc070002002000831f2400bffd07008d
:10177400a09e8800b19e8800889d8000999d80006d
:10178400a09e8000b19e8000e27a240013de230034
:10179400b6fd07000001be000800be002bfc0700d8
:1017a400209a8800319a8800209a8000319a80001b
:1017b40004002000852c240002002000832c2c002f
:1017c400eb030700209a8800319a8800889d8000e6
:1017d400999d8000a09e8000b19e8000e27a240042
:1017e40013de2300a1fd07000001be000800be00b7
:1017f40015fc0700e0998800f1998800e0998000c1
:10180400f199800004002000852c240002002000af
:10181400832c2c00d6030700e0998800f1998800f6
:101824004f04be000080fa00000006000000fa0029
:10183400c301a8000080eb00e00e88000080eb00ec
:10184400f00e8800c1e1a8000080fa000000060044
:101854000000fa00c305a8000080eb00e02e880019
:101864000080eb00f02e8800c1e5a8000080fa009b
:10187400000006002000fa00889fbe008a9fbe0078
:10188400a29a8000b39a8000028fbe00c29a8000a0
:10189400d39a80002207980033079800300e800006
:1018a4008000eb004007980051079800500e80001c
:1018b4008000eb00c000dd00000020004e0190001d
:1018c400de01900002004000838048004007980039
:1018d40051079800302e80008000eb0060079800cc
:1018e40071079800502e80008000eb00c000dd00de
:1018f400000020006e019000fe01900002004000f4
:101904008380480060079800710798004e0090009b
:10191400de009000aefc0700c2b4200093782300e0
:1019240052fd0700a09a8800b19a88006e009000ca
:10193400fe009000a6fc0700c2b4200093782b00a0
:101944004afd0700c09a8800d19a8800a09a8000b6
:10195400b19a80001e0178009e019000bafb070036
:10196400000f9800110f9800c09a8000d19a80004f
:101974002e019000be019000b3fb0700200f9800d9
:10198400310f98002e099000be0990000e089000b7
:101994009e089000acfb0700e27a240013e62300c3
:1019a40009fc0700400f9800510f98000200200026
:1019b400a33724000e0890009e0890002bfd07001a
:1019c400e09a8800f19a880002002000a3372400de
:1019d4002e089000be08900024fd0700009b88009c
:1019e400119b8800e49a8000f59a8000009b800097
:1019f400119b80000001be000400be0093fb0700a1
:101a04000200200003002400effb0700209b880055
:101a1400319b880002002000a33724004e08900068
:101a2400de08900011fd0700409b8800519b880050
:101a3400809b8000919b8000609b8800719b880044
:101a4400c09b8000d19b8000a09b8800b19b880034
:101a5400009c8000119c8000e09b8800f19b880022
:101a6400e09b8000f19b80004e099000de0990000d
:101a740076fb0700600f9800710f9800689b800048
:101a8400799b8000409b8000519b800002002000d5
:101a9400a3372400ccfb07000005be006e089000ad
:101aa400fe089000c6fb07000001be000a00be004d
:101ab400eefc07000001be000800be0063fb070047
:101ac400809b8800919b8800a89b8000b99b800024
:101ad400209b8000319b800002002000a33724005b
:101ae400b9fb07000005be006e089000fe089000d8
:101af4007bfd07000001be000a00be00dbfc0700fe
:101b04000001be000800be0050fb0700c09b880017
:101b1400d19b88006e099000fe099000029c880009
:101b2400139c8800009c8000119c800018c0b300a6
:101b340092ff200093042400e7fb07000000e0006c
:101b440001003c000044eb000804e0000700320000
:101b5400009c8000119c800092ff2000930c2400c4
:101b640039fb0700009c8800119c8800009c8000c1
:101b7400119c800018c0b30092ff200093042c0035
:101b8400d3fb07000000e000010035000044eb0037
:101b94000804e00007003200009c8000119c8000d3
:101ba40092ff2000930c240028fb0700009c88006f
:101bb400119c88004f05be004f04be000080fa004f
:101bc400000006003000fa0090818000a1818000ae
:101bd4000001be008000eb000e0078005b030700ec
:101be400809b8000919b80000001be00410020008a
:101bf4000e0078003c030700c09b8000d19b80004e
:101c04000001be00810020000e00780036030700aa
:101c1400009c8000119c80000001be00c1002000d7
:101c24000e00780030030700209b8000319b800069
:101c34000001be00010120000e0078002a03070005
:101c4400409b8000519b80000001be0041012000a8
:101c54000e00780024030700a09c8000b19c800043
:101c64000001be00810120000e0078001e03070061
:101c7400c09c8000d19c80000001be00c1012000f6
:101c84000e00780018030700809a8000919a800063
:101c94000001be00010220000e00780012030700bc
:101ca400609a8000719a80000001be004102200009
:101cb4000e0078000c030700c09d8000d19d8000b9
:101cc4000001be00810220000e0078000603070018
:101cd400e09d8000f19d80000001be00c102200053
:101ce4000e00780000030700009d8000119d800015
:101cf4000001be00010320000e007800fa02070074
:101d0400209e8000319e80000001be00410320001f
:101d14000e007800f4020700209d8000319d8000b1
:101d24000001be00810320000e007800ee020700cf
:101d3400409e8000519e80000001be00c10320002f
:101d44000e007800e8020700409d8000519d80004d
:101d54000001be00010420000e007800e20207002a
:101d6400609e8000719e80000001be00410420003e
:101d74000e007800dc020700609d8000719d8000e9
:101d84000001be00810420000e007800d602070086
:101d9400809e8000919e80000001be00c10420004e
:101da4000e007800d0020700809d8000919d800085
:101db4000001be00010520000e007800ca020700e1
:101dc400a09e8000b19e80000001be00410520005d
:101dd4000e007800c40207000e017800810520007f
:101de400100620005f0307000080fa0000000600d0
:101df4000000fa0013e1a90011e1a9001061a80094
:101e04001021a90081088000f0fc2f0000806000f0
:101e1400800888000a21ef000621ef002026200018
:101e24007008880000a02500600888002142800016
:101e340080ff2f00008060000000a0002042880086
:101e44000108a9002108a80011e1a8000080fa00f7
:101e5400000006000400fa00881f7800008fbe000e
:101e640021088000f0fc2f0000806000200888001a
:101e74001e0178009e0190000068290081c12400a1
:101e8400d1fa070018c0b30002f02f00f377240042
:101e940011fb07000000e00001003c000044eb00df
:101ea4000804e0005400320021088000f0fc2f00f8
:101eb400008060000040a000200888001e01780017
:101ec4009e0190000068290081c12400befa070029
:101ed4000200200003102400bbfa070018c0b3005e
:101ee40002f02f00f3772400fbfa07000000e00063
:101ef40001003c000044eb000804e0003200320022
:101f040021088000f0fc2f00008060000050a00039
:101f1400200888001e0178009e01900000682900b6
:101f240081c12400a8fa070002002000032824002d
:101f3400a5fa070018c0b30002f02f00f3772400bd
:101f4400e5fa07000000e00001003c000044eb005b
:101f54000804e00010003200210880000003200083
:101f640001007000200888001e0178009e01900086
:101f74000068290081c1240093fa070002002000b0
:101f84000338240090fa0700d5fa0700000078000f
:101f940010088800200037001e0178009e01900080
:101fa4000068290081c1240087fa0700020020008c
:101fb4000328240084fa0700c9fa07000000780007
:101fc40010088800140037001e0178009e0190005c
:101fd4000068290081c124007bfa07000200200068
:101fe4000310240078fa0700bdfa07000000780007
:101ff40010088800080037001e0178009e01900038
:102004000068290081c124006ffa0700b4fa0700b0
:1020140000007800100888004f0478000080fa005f
:10202400000006000000fa0005e1a9002108800074
:10203400f0fc2f00008060000050a0002008880001
:102044000421a90000002000a137240081ff07001b
:102054000068a9002068a80005e1a8000080fa0033
:10206400000006000400fa00881f7800008fbe00fc
:10207400f1088000f0fc2f0000806000f008880068
:102084001e0178009e0190000068290081c124008f
:102094004dfa070018c0b30002f02f00f3772400b4
:1020a4008dfa07000000e00001003c000044eb0052
:1020b4000804e00054003200f1088000f0fc2f0016
:1020c400008060000040a000f00888001e01780035
:1020d4009e0190000068290081c124003afa07009b
:1020e400020020000310240037fa070018c0b300d0
:1020f40002f02f00f377240077fa07000000e000d5
:1021040001003c000044eb000804e000320032000f
:10211400f1088000f0fc2f00008060000050a00057
:10212400f00888001e0178009e01900000682900d4
:1021340081c1240024fa070002002000032824009f
:1021440021fa070018c0b30002f02f00f37724002f
:1021540061fa07000000e00001003c000044eb00cd
:102164000804e00010003200f108800000032000a1
:1021740001007000f00888001e0178009e019000a4
:102184000068290081c124000ffa07000200200022
:10219400033824000cfa070051fa07000000780005
:1021a40010088800200037001e0178009e0190006e
:1021b4000068290081c1240003fa070002002000fe
:1021c4000328240000fa070045fa070000007800fd
:1021d40010088800140037001e0178009e0190004a
:1021e4000068290081c12400f7f9070002002000db
:1021f40003102400f4f9070039fa070000007800fe
:1022040010088800080037001e0178009e01900025
:102214000068290081c12400ebf9070030fa0700a7
:1022240000007800100888004f0478000080fa004d
:10223400000006000000fa001fe1a9001e21a90009
:1022440000002000a147240086ff07000368a900be
:102254002368a8001fe1a8000080fa00000006001f
:102264000400fa00580307000004e000890032006b
:102274000000eb00000f78008300370043030700e1
:102284002047980000d0bf000080fb00e30f5000ff
:1022940025003200e30f500007003c00e10f50001e
:1022a40012003200e10f500017003c000000e00073
:1022b400080032006e003700e50f50004500320080
:1022c400e50f50001f003500e60f500050003200ab
:1022d400670037002e409000e24f400066003a004d
:1022e40010c0b30000f0b700660037002e40900025
:1022f4000080fb004800dd001080880020c0b3008f
:1023040000f0b7005f0037002e4090008080fb0093
:1023140010808000008040001080880030c0b3002e
:1023240000f0b700570037002e4090000080fb00fb
:102334004800dd002080880040c0b30000f0b700f2
:10234400500037002e4090008080fb0020808000e9
:102354000080400020808800208080000000e00091
:1023640003003a0060c0b30000f0b7004500370036
:1023740021808000f0072000808f500004003e0080
:1023840050c0b30000f0b7000a30ef003d00370042
:1023940021738000000820000080600000f0a70086
:1023a4000000ea000000e9004f00de000040780071
:1023b4000080fb00610060004700dd0021738000a5
:1023c4000170a10001007000207388000070ef000c
:1023d4002c00370050808000a103210000804000c1
:1023e400ae40900001487800508080000000e80072
:1023f400508088005180800020808000808f5000b1
:102404001f00390060c0b30000f0b7001d003700a2
:10241400ae409000620021000149780020808000d5
:102424008000780010808000a2032100ac01070026
:1024340008f0b700810021009140780006d0bf0069
:1024440080cf500005003a000770ef0010c0b300c1
:102454000cf0b700110007000300370010c0b300f0
:1024640007f0b7000c70ef000070ef0005003700b4
:102474000070ef0003003700000000000100370087
:10248400000000001e0fe800df0207009e0f50004e
:102494007aff3c000080fa00000006000800fa0001
:1024a4001180800010062100808f500021003a0026
:1024b40021718000004020000080600000f0a7002f
:1024c4000000ea000000e9004f00de000040780050
:1024d4000080fb00610060004a00dd002171800083
:1024e40001a0a10001007000207188008000eb00b1
:1024f400a0032100e2000700008fbe00410020007d
:10250400a0032100de00070020079800310798008f
:102514001e0178009e019000629a8800739a8800d8
:102524002e019000be019000829a8800939a880040
:102534000000000007d0bf000004e00001003200ea
:102544000770ef000c70ef000080fa000000060036
:102554000000fa00f602070025fe0700b1fe07009e
:1025640034ff0700b902070039fb07002b020700fc
:1025740029010700adfc0700b5fc0700000020009e
:1025840001082400a09c8800b19c88000000200061
:10259400812a2400c09c8800d19c8800000020006f
:1025a40001052400c09d8800d19d88000000200002
:1025b400f1322400e09d8800f19d88006000b8009d
:1025c400809a8800919a88006000b800609a880018
:1025d400719a8800010037000000000020ff070006
:1025e400a0808000b18080000001be004206b000df
:1025f4000380b00090818000a1818000800f510091
:10260400818f5900f4ff310090818000a181800006
:10261400a0808800b180880021738000000420001d
:102624000080600000f0a7000000ea000000e9005c
:102634004f00de00004078000080fb006100600075
:102644004600dd00217380000160a10001007000dc
:1026540020738800e1ff37000400fa00881f780027
:10266400008fbe0018c0b3006011b8001e007800cf
:102674009e00900018f907000000e00001003d00f2
:102684000044eb000804e000030032001e00780060
:102694009e009000030037001e0078009e0090000a
:1026a40001f0a2004f0478000080fa000000060048
:1026b4000800fa00881f7800008fbe0022079800e7
:1026c4003307980018c0b3002e019000be0190009b
:1026d4001e0078009e009000fff807000000e00054
:1026e40001003c000044eb000804e0000300320059
:1026f4001e0078009e009000020037002e0090001b
:10270400be0090004f0478000080fa00000006002c
:102714000800fa00881f7800008fbe002207980086
:102724003307980018c0b3002e019000be0190003a
:102734001e0078009e009000e5f807000000e0000d
:10274400010035000044eb000804e00003003200ff
:102754001e0078009e009000020037002e009000ba
:10276400be0090004f0478000080fa0000000600cc
:102774000c00fa00881f7800008fbe002207980022
:1027840033079800440798005507980018c0b30011
:102794002e019000be0190001e0078009e00900063
:1027a400cbf807000000e000010035000044eb0016
:1027b4000804e000030032002e009000be009000e8
:1027c4001000370018c0b3004e019000de019000e5
:1027d4001e0078009e009000bff807000000e00093
:1027e40001003c000044eb000804e0000300320058
:1027f4004e009000de009000020037001e007800ba
:102804009e0090004f0478000080fa00000006004b
:102814000800fa00200798003107980092ff200072
:10282400930424002e009000be00900006f80700d8
:1028340092ff2000930c2400e8f8070092ff200088
:102844009304240001f80700008fbe0092ff2000cb
:10285400930424001e0078009e009000fbf70700fc
:1028640092ff2000930c2400dcf8070092ff200064
:1028740093042400f4f707000080fa000000060027
:102884000a00fa003007980041079800be00900043
:102894004e009000008f40001e0078001001780068
:1028a4009001900012079800230798001e009000e2
:1028b400ae0090000080fa00000006000600fa0056
:1028c40010079800210798009e0090002e009000a9
:1028d400008f40001e0078009000900010007800e7
:1028e4000080fa00000006000c00fa00200798009f
:1028f4003107980042079800530798006800470082
:10290400100798000000eb00000f78000a00370061
:102914003e0090001e004000ae0090000080400089
:102924009e0078001e0190008100410091407800d3
:10293400014878001e0fe8001e007800e30f5000e5
:10294400f3ff34000080fa00000006000c00fa00d7
:102954002007980031079800420798005307980011
:1029640068004700100798000000eb00000f780093
:102974000b0037003e0090001e004000ae009000a7
:1029840000804000320020009e0051001e01900093
:102994008100410091407800014878001e0fe80052
:1029a4001e007800e30f5000f2ff34000080fa00ac
:1029b400000006000c00fa00200798003107980078
:1029c40042079800530798006800470010079800d2
:1029d4000000eb00000f78000a0037003e00900072
:1029e4001e004000ae009000008040009e00780071
:1029f4001e01900081004100914078000148780058
:102a04001e0fe8001e007800e70f5000f3ff3400ab
:102a14000080fa00000006000000fa002002a9006d
:102a24000111800090ff2f000080600000118800d9
:102a340020a2a9002062a8005005200040118800af
:102a440023a2a90023e2a9000188a9002188a800e3
:102a540011118000f0f32f00008060001011880035
:102a64000168a9002168a80021e2a8002342a80067
:102a74000080fa00000006000600fa001007980023
:102a8400210798000040eb00004f78000e0037004b
:102a94000000000011118000002020000080600070
:102aa4000000e000fbff3a001e0090001040780098
:102ab4000080fb00201188001e0090000000e80048
:102ac400100798001e4fe8009e80fb002e00900027
:102ad400808f5000eeff35000080fa0000000600f1
:102ae4000a00fa002007980031079800420798006e
:102af4000040eb00004f78002e00900080407800ea
:102b04002e0090004880de000040780000c068007d
:102b14009e406800e0cfb30000cf68000000eb00e7
:102b240010079800080037001e009000ce009000a7
:102b340000804000104078001e4f68001e00900086
:102b44000000e800100798009e0090003e009000ee
:102b5400808f5000f4ff35001e4078000080fa009a
:102b6400000006000c00fa00889fbe008a9fbe0089
:102b74003007980041079800520798008f047800a6
:102b84000f007800000578004e00900066044000b5
:102b94000800e90010079800080078000000e80029
:102ba4000000e8000000d100800040000f00780021
:102bb400818747000000e8000000d10000004000c9
:102bc400200798002e009000e1cfb3000148780060
:102bd4003e0090004880de00804078002e00900087
:102be400114098003e009000804078002e00900034
:102bf400214098004e0090004880de00804078001c
:102c04002e009000314098004e00900080407800e3
:102c14002e009000414098000000eb00000f780067
:102c24000a0037009e007800658040009e0078000e
:102c34005e01900081004100914078002e019000d7
:102c440000004100014878001e0fe8004e0090008b
:102c54009e007800808f5000f2ff35004e009000f7
:102c6400e50540005e019000ce0090003e0090001b
:102c74009bff0700ae0090008b80400080487800e6
:102c84002e00900088007800130007008a0778005f
:102c9400890778004f05be004f04be000080fa008b
:102ca400000006000400fa0020479800314798000d
:102cb400ae4090003e409000014f780010479800cd
:102cc4000e0178002100200000042000a5ff070069
:102cd4000080fa00000006000600fa0010079800c1
:102ce400210798000040eb00004f780043000700e4
:102cf400ae009000810f5000110034000040eb0042
:102d0400004f7800060037001e80fb009e009000f4
:102d140000804000104078000b0007001e4fe800c0
:102d24009e80fb002e009000808f5000f6ff35003f
:102d34002e0007000004e00001003a002200070012
:102d44000080fa00000006000200fa00004f78003c
:102d540020818000a12b2100008040001e487800c3
:102d6400208180000000e80020818800218180000b
:102d7400f0072000808f5000010034002430ef0061
:102d84000080fa00000006000200fa003081800092
:102d9400a12b210000804000104f7800308180007a
:102da4000000e8003081880031818000f0072000b5
:102db400808f5000010034002630ef001e40780060
:102dc4000080fa00000006000200fa0010c0b30000
:102dd40028f0b700ecff0700004f78001e80fb00ce
:102de400201188000080fa00000006000000fa00ac
:102df40028d0bf000080fa00000006000000fa009e
:102e040020818000010820008080500030818000f3
:102e1400008040000080fa00000006000000fa0074
:102e240021e3a9002143a80001198000f0cf2f005d
:102e340000806000001988002043a9000119800067
:102e4400000e200001007000001988001119800094
:102e5400f0ff210000806000101988002343a800bf
:102e640011198000f0cf2f00008060001019880035
:102e74001119800030f82f00008060000040a0008d
:102e8400101988002203a9002223a90025e3a90020
:102e9400f0c0b30024e3b70021198000f00f2e0026
:102ea4008080600000f0200001007000201988007c
:102eb4003303a9002e0ea8002f6ea8006f2ea800c1
:102ec4004feea8000f8ea80030c3a8003163a800fd
:102ed4002e03a80031e3a8003143a8004119800063
:102ee40000fc2f00008060004019880028e3a9003e
:102ef40001a8a90021a8a80021e3a8000080fa00e5
:102f0400000006000000fa002023a8000080fa0058
:102f1400000006000000fa00a00121000080fa0071
:102f2400000006000000fa0022d0bf000080fa0072
:102f3400000006000000fa002270ef000080fa0092
:102f4400000006000200fa00004f78002800070085
:102f54000000e0000b00340050818000a123210018
:102f6400808040009e4878000000e800508188007e
:102f740051818000f0072000808f50000100340050
:102f84002a30ef000080fa00000006000200fa0078
:102f940060818000a123210080804000114f7800cf
:102fa4000000e8006081880061818000f007200053
:102fb400808f5000010034002c30ef001e40780058
:102fc4000080fa00000006000000fa005181800031
:102fd40060818000808f50000200320010c0b30076
:102fe400010037000040eb000080fa0000000600fa
:102ff4000000fa00040007000108200000805000cf
:103004000080fa00000006000200fa0051818000ee
:1030140060818000808f5000040035005181800061
:1030240060818000008f50000500370051818000ce
:10303400608180000080500001082000010f4000e2
:103044001e0078000080fa00000006000000fa006c
:103054000e2eef001e2eef002e2eef003e2eef0060
:103064004e2eef005e2eef006e2eef00214ea900d3
:1030740060cea90060eea900000ea80011cea90040
:1030840011eea90020cea90020eea900102ea80060
:10309400200ea800216ea800612ea80041eea80011
:1030a4002136800000f82f00008060008001b3000a
:1030b400203688001134800000fc2f00008060005e
:1030c4000000a000103488000136800000f82f00b2
:1030d4008080600010062000010070000036880027
:1030e40001368000f00f2800808060000000260078
:1030f4000100700000368800e135800000f82f00e0
:10310400808060006004200001007000e0358800c9
:10311400e1358000f00f280080806000005024001a
:1031240001007000e03588000080fa00000006000d
:103134000000fa00f0032000303a8800213a8000b1
:10314400f0f32f0000806000203a8800213a8000cc
:1031540000fe2f00008060000000a000203a8800dc
:103164001200200080072000a109200033742000f1
:10317400804978008149780082497800103a8000bb
:10318400000178000200a000600420007105200006
:1031940023742000804978008149780082497800ae
:1031a40000000000113a80000000270080806000c9
:1031b40000002100808f5000faff3a000000000058
:1031c400113a800000022000008060000000e0004e
:0c31d400fbff32000080fa000000060043
:020000040000fa
:1031e0003a10000000020000800000000010000003
:1031f00018000000800000003a120000800000006b
:10320000800000002a100000040000008000000080
:103210002e100000040000008000000032100000aa
:10322000040000008000000094130000480000002b
:103230008000000036100000020000008200000044
:10324000140000003a1300005a0000008000000043
:10325000ba1200008000000080000000241000006e
:103260000600000080000000181000000c000000a4
:103270008000000038100000020000008000000004
:04328000000000004a
:020000040000fa
:02000004000af0
:04afe000cfff00009f
:020000040000fa
:02000004000af0
:04afe400f7ff000073
:020000040000fa
:02000004000af0
:04afe8007fff0000e7
:020000040000fa
:02000004000af0
:04afec005fff000003
:020000040000fa
:02000004000af0
:04aff00038ff000026
:020000040000fa
:02000004000af0
:04aff400ffff00005b
:00000001FF
